{
  "_format": "hh-sol-artifact-1",
  "contractName": "EventRegistration",
  "sourceName": "contracts/EventRegistration.sol",
  "abi": [
    {
      "anonymous": false,
      "inputs": [
        {
          "indexed": false,
          "internalType": "uint256",
          "name": "id",
          "type": "uint256"
        },
        {
          "indexed": false,
          "internalType": "string",
          "name": "eventId",
          "type": "string"
        },
        {
          "indexed": false,
          "internalType": "string",
          "name": "title",
          "type": "string"
        },
        {
          "indexed": false,
          "internalType": "string",
          "name": "description",
          "type": "string"
        },
        {
          "indexed": false,
          "internalType": "string",
          "name": "date",
          "type": "string"
        },
        {
          "indexed": false,
          "internalType": "string",
          "name": "location",
          "type": "string"
        },
        {
          "indexed": false,
          "internalType": "address",
          "name": "organizer",
          "type": "address"
        }
      ],
      "name": "EventCreated",
      "type": "event"
    },
    {
      "anonymous": false,
      "inputs": [
        {
          "indexed": false,
          "internalType": "uint256",
          "name": "eventId",
          "type": "uint256"
        },
        {
          "indexed": false,
          "internalType": "address",
          "name": "user",
          "type": "address"
        },
        {
          "indexed": false,
          "internalType": "uint256",
          "name": "timestamp",
          "type": "uint256"
        }
      ],
      "name": "UserRegistered",
      "type": "event"
    },
    {
      "inputs": [
        {
          "internalType": "string",
          "name": "_eventId",
          "type": "string"
        },
        {
          "internalType": "string",
          "name": "_title",
          "type": "string"
        },
        {
          "internalType": "string",
          "name": "_description",
          "type": "string"
        },
        {
          "internalType": "string",
          "name": "_date",
          "type": "string"
        },
        {
          "internalType": "string",
          "name": "_location",
          "type": "string"
        }
      ],
      "name": "createEvent",
      "outputs": [],
      "stateMutability": "nonpayable",
      "type": "function"
    },
    {
      "inputs": [],
      "name": "eventCount",
      "outputs": [
        {
          "internalType": "uint256",
          "name": "",
          "type": "uint256"
        }
      ],
      "stateMutability": "view",
      "type": "function"
    },
    {
      "inputs": [
        {
          "internalType": "uint256",
          "name": "",
          "type": "uint256"
        }
      ],
      "name": "events",
      "outputs": [
        {
          "internalType": "uint256",
          "name": "id",
          "type": "uint256"
        },
        {
          "internalType": "string",
          "name": "eventId",
          "type": "string"
        },
        {
          "internalType": "string",
          "name": "title",
          "type": "string"
        },
        {
          "internalType": "string",
          "name": "description",
          "type": "string"
        },
        {
          "internalType": "string",
          "name": "date",
          "type": "string"
        },
        {
          "internalType": "string",
          "name": "location",
          "type": "string"
        },
        {
          "internalType": "address",
          "name": "organizer",
          "type": "address"
        },
        {
          "internalType": "uint256",
          "name": "registrationCount",
          "type": "uint256"
        }
      ],
      "stateMutability": "view",
      "type": "function"
    },
    {
      "inputs": [],
      "name": "getAllEvents",
      "outputs": [
        {
          "components": [
            {
              "internalType": "uint256",
              "name": "id",
              "type": "uint256"
            },
            {
              "internalType": "string",
              "name": "eventId",
              "type": "string"
            },
            {
              "internalType": "string",
              "name": "title",
              "type": "string"
            },
            {
              "internalType": "string",
              "name": "description",
              "type": "string"
            },
            {
              "internalType": "string",
              "name": "date",
              "type": "string"
            },
            {
              "internalType": "string",
              "name": "location",
              "type": "string"
            },
            {
              "internalType": "address",
              "name": "organizer",
              "type": "address"
            },
            {
              "internalType": "uint256",
              "name": "registrationCount",
              "type": "uint256"
            }
          ],
          "internalType": "struct EventRegistration.Event[]",
          "name": "",
          "type": "tuple[]"
        }
      ],
      "stateMutability": "view",
      "type": "function"
    },
    {
      "inputs": [
        {
          "internalType": "uint256",
          "name": "_eventId",
          "type": "uint256"
        }
      ],
      "name": "getRegistrations",
      "outputs": [
        {
          "components": [
            {
              "internalType": "uint256",
              "name": "eventId",
              "type": "uint256"
            },
            {
              "internalType": "address",
              "name": "user",
              "type": "address"
            },
            {
              "internalType": "uint256",
              "name": "timestamp",
              "type": "uint256"
            }
          ],
          "internalType": "struct EventRegistration.Registration[]",
          "name": "",
          "type": "tuple[]"
        }
      ],
      "stateMutability": "view",
      "type": "function"
    },
    {
      "inputs": [
        {
          "internalType": "uint256",
          "name": "_eventId",
          "type": "uint256"
        }
      ],
      "name": "registerForEvent",
      "outputs": [],
      "stateMutability": "nonpayable",
      "type": "function"
    },
    {
      "inputs": [
        {
          "internalType": "uint256",
          "name": "",
          "type": "uint256"
        },
        {
          "internalType": "uint256",
          "name": "",
          "type": "uint256"
        }
      ],
      "name": "registrations",
      "outputs": [
        {
          "internalType": "uint256",
          "name": "eventId",
          "type": "uint256"
        },
        {
          "internalType": "address",
          "name": "user",
          "type": "address"
        },
        {
          "internalType": "uint256",
          "name": "timestamp",
          "type": "uint256"
        }
      ],
      "stateMutability": "view",
      "type": "function"
    }
  ],
  "bytecode": "0x60806040526000805534801561001457600080fd5b50611a4e806100246000396000f3fe608060405234801561001057600080fd5b506004361061007d5760003560e01c806371be2e4a1161005b57806371be2e4a146100f1578063a509edac1461010f578063c27a500d14610141578063c68c8a531461015f5761007d565b80630b7914301461008257806311dd1650146100b9578063406db843146100d5575b600080fd5b61009c60048036038101906100979190610dbb565b61018f565b6040516100b0989796959493929190610ec8565b60405180910390f35b6100d360048036038101906100ce919061109e565b61049f565b005b6100ef60048036038101906100ea9190610dbb565b610635565b005b6100f96107ba565b60405161010691906111a5565b60405180910390f35b610129600480360381019061012491906111c0565b6107c0565b60405161013893929190611200565b60405180910390f35b610149610827565b604051610156919061142d565b60405180910390f35b61017960048036038101906101749190610dbb565b610c3a565b6040516101869190611540565b60405180910390f35b60016020528060005260406000206000915090508060000154908060010180546101b890611591565b80601f01602080910402602001604051908101604052809291908181526020018280546101e490611591565b80156102315780601f1061020657610100808354040283529160200191610231565b820191906000526020600020905b81548152906001019060200180831161021457829003601f168201915b50505050509080600201805461024690611591565b80601f016020809104026020016040519081016040528092919081815260200182805461027290611591565b80156102bf5780601f10610294576101008083540402835291602001916102bf565b820191906000526020600020905b8154815290600101906020018083116102a257829003601f168201915b5050505050908060030180546102d490611591565b80601f016020809104026020016040519081016040528092919081815260200182805461030090611591565b801561034d5780601f106103225761010080835404028352916020019161034d565b820191906000526020600020905b81548152906001019060200180831161033057829003601f168201915b50505050509080600401805461036290611591565b80601f016020809104026020016040519081016040528092919081815260200182805461038e90611591565b80156103db5780601f106103b0576101008083540402835291602001916103db565b820191906000526020600020905b8154815290600101906020018083116103be57829003601f168201915b5050505050908060050180546103f090611591565b80601f016020809104026020016040519081016040528092919081815260200182805461041c90611591565b80156104695780601f1061043e57610100808354040283529160200191610469565b820191906000526020600020905b81548152906001019060200180831161044c57829003601f168201915b5050505050908060060160009054906101000a900473ffffffffffffffffffffffffffffffffffffffff16908060070154905088565b6000808154809291906104b1906115f1565b919050555060405180610100016040528060005481526020018681526020018581526020018481526020018381526020018281526020013373ffffffffffffffffffffffffffffffffffffffff1681526020016000815250600160008054815260200190815260200160002060008201518160000155602082015181600101908161053c91906117e5565b50604082015181600201908161055291906117e5565b50606082015181600301908161056891906117e5565b50608082015181600401908161057e91906117e5565b5060a082015181600501908161059491906117e5565b5060c08201518160060160006101000a81548173ffffffffffffffffffffffffffffffffffffffff021916908373ffffffffffffffffffffffffffffffffffffffff16021790555060e082015181600701559050507f58c92ad0acdbc46b1e29dec2e292a0ecae3d92a3f8776b209844118b3a8a28d960005486868686863360405161062697969594939291906118b7565b60405180910390a15050505050565b60008111801561064757506000548111155b610686576040517f08c379a000000000000000000000000000000000000000000000000000000000815260040161067d90611995565b60405180910390fd5b6002600082815260200190815260200160002060405180606001604052808381526020013373ffffffffffffffffffffffffffffffffffffffff1681526020014281525090806001815401808255809150506001900390600052602060002090600302016000909190919091506000820151816000015560208201518160010160006101000a81548173ffffffffffffffffffffffffffffffffffffffff021916908373ffffffffffffffffffffffffffffffffffffffff160217905550604082015181600201555050600160008281526020019081526020016000206007016000815480929190610777906115f1565b91905055507fb58d46e66658e855773af8232237e606476d7f0ad98813c081b540e6f435ea3e8133426040516107af93929190611200565b60405180910390a150565b60005481565b600260205281600052604060002081815481106107dc57600080fd5b9060005260206000209060030201600091509150508060000154908060010160009054906101000a900473ffffffffffffffffffffffffffffffffffffffff16908060020154905083565b60606000805467ffffffffffffffff81111561084657610845610f73565b5b60405190808252806020026020018201604052801561087f57816020015b61086c610d16565b8152602001906001900390816108645790505b5090506000600190505b6000548111610c32576001600082815260200190815260200160002060405180610100016040529081600082015481526020016001820180546108cb90611591565b80601f01602080910402602001604051908101604052809291908181526020018280546108f790611591565b80156109445780601f1061091957610100808354040283529160200191610944565b820191906000526020600020905b81548152906001019060200180831161092757829003601f168201915b5050505050815260200160028201805461095d90611591565b80601f016020809104026020016040519081016040528092919081815260200182805461098990611591565b80156109d65780601f106109ab576101008083540402835291602001916109d6565b820191906000526020600020905b8154815290600101906020018083116109b957829003601f168201915b505050505081526020016003820180546109ef90611591565b80601f0160208091040260200160405190810160405280929190818152602001828054610a1b90611591565b8015610a685780601f10610a3d57610100808354040283529160200191610a68565b820191906000526020600020905b815481529060010190602001808311610a4b57829003601f168201915b50505050508152602001600482018054610a8190611591565b80601f0160208091040260200160405190810160405280929190818152602001828054610aad90611591565b8015610afa5780601f10610acf57610100808354040283529160200191610afa565b820191906000526020600020905b815481529060010190602001808311610add57829003601f168201915b50505050508152602001600582018054610b1390611591565b80601f0160208091040260200160405190810160405280929190818152602001828054610b3f90611591565b8015610b8c5780601f10610b6157610100808354040283529160200191610b8c565b820191906000526020600020905b815481529060010190602001808311610b6f57829003601f168201915b505050505081526020016006820160009054906101000a900473ffffffffffffffffffffffffffffffffffffffff1673ffffffffffffffffffffffffffffffffffffffff1673ffffffffffffffffffffffffffffffffffffffff16815260200160078201548152505082600183610c0391906119b5565b81518110610c1457610c136119e9565b5b60200260200101819052508080610c2a906115f1565b915050610889565b508091505090565b606060026000838152602001908152602001600020805480602002602001604051908101604052809291908181526020016000905b82821015610d0b5783829060005260206000209060030201604051806060016040529081600082015481526020016001820160009054906101000a900473ffffffffffffffffffffffffffffffffffffffff1673ffffffffffffffffffffffffffffffffffffffff1673ffffffffffffffffffffffffffffffffffffffff16815260200160028201548152505081526020019060010190610c6f565b505050509050919050565b604051806101000160405280600081526020016060815260200160608152602001606081526020016060815260200160608152602001600073ffffffffffffffffffffffffffffffffffffffff168152602001600081525090565b6000604051905090565b600080fd5b600080fd5b6000819050919050565b610d9881610d85565b8114610da357600080fd5b50565b600081359050610db581610d8f565b92915050565b600060208284031215610dd157610dd0610d7b565b5b6000610ddf84828501610da6565b91505092915050565b610df181610d85565b82525050565b600081519050919050565b600082825260208201905092915050565b60005b83811015610e31578082015181840152602081019050610e16565b60008484015250505050565b6000601f19601f8301169050919050565b6000610e5982610df7565b610e638185610e02565b9350610e73818560208601610e13565b610e7c81610e3d565b840191505092915050565b600073ffffffffffffffffffffffffffffffffffffffff82169050919050565b6000610eb282610e87565b9050919050565b610ec281610ea7565b82525050565b600061010082019050610ede600083018b610de8565b8181036020830152610ef0818a610e4e565b90508181036040830152610f048189610e4e565b90508181036060830152610f188188610e4e565b90508181036080830152610f2c8187610e4e565b905081810360a0830152610f408186610e4e565b9050610f4f60c0830185610eb9565b610f5c60e0830184610de8565b9998505050505050505050565b600080fd5b600080fd5b7f4e487b7100000000000000000000000000000000000000000000000000000000600052604160045260246000fd5b610fab82610e3d565b810181811067ffffffffffffffff82111715610fca57610fc9610f73565b5b80604052505050565b6000610fdd610d71565b9050610fe98282610fa2565b919050565b600067ffffffffffffffff82111561100957611008610f73565b5b61101282610e3d565b9050602081019050919050565b82818337600083830152505050565b600061104161103c84610fee565b610fd3565b90508281526020810184848401111561105d5761105c610f6e565b5b61106884828561101f565b509392505050565b600082601f83011261108557611084610f69565b5b813561109584826020860161102e565b91505092915050565b600080600080600060a086880312156110ba576110b9610d7b565b5b600086013567ffffffffffffffff8111156110d8576110d7610d80565b5b6110e488828901611070565b955050602086013567ffffffffffffffff81111561110557611104610d80565b5b61111188828901611070565b945050604086013567ffffffffffffffff81111561113257611131610d80565b5b61113e88828901611070565b935050606086013567ffffffffffffffff81111561115f5761115e610d80565b5b61116b88828901611070565b925050608086013567ffffffffffffffff81111561118c5761118b610d80565b5b61119888828901611070565b9150509295509295909350565b60006020820190506111ba6000830184610de8565b92915050565b600080604083850312156111d7576111d6610d7b565b5b60006111e585828601610da6565b92505060206111f685828601610da6565b9150509250929050565b60006060820190506112156000830186610de8565b6112226020830185610eb9565b61122f6040830184610de8565b949350505050565b600081519050919050565b600082825260208201905092915050565b6000819050602082019050919050565b61126c81610d85565b82525050565b600082825260208201905092915050565b600061128e82610df7565b6112988185611272565b93506112a8818560208601610e13565b6112b181610e3d565b840191505092915050565b6112c581610ea7565b82525050565b6000610100830160008301516112e46000860182611263565b50602083015184820360208601526112fc8282611283565b915050604083015184820360408601526113168282611283565b915050606083015184820360608601526113308282611283565b9150506080830151848203608086015261134a8282611283565b91505060a083015184820360a08601526113648282611283565b91505060c083015161137960c08601826112bc565b5060e083015161138c60e0860182611263565b508091505092915050565b60006113a383836112cb565b905092915050565b6000602082019050919050565b60006113c382611237565b6113cd8185611242565b9350836020820285016113df85611253565b8060005b8581101561141b57848403895281516113fc8582611397565b9450611407836113ab565b925060208a019950506001810190506113e3565b50829750879550505050505092915050565b6000602082019050818103600083015261144781846113b8565b905092915050565b600081519050919050565b600082825260208201905092915050565b6000819050602082019050919050565b6060820160008201516114916000850182611263565b5060208201516114a460208501826112bc565b5060408201516114b76040850182611263565b50505050565b60006114c9838361147b565b60608301905092915050565b6000602082019050919050565b60006114ed8261144f565b6114f7818561145a565b93506115028361146b565b8060005b8381101561153357815161151a88826114bd565b9750611525836114d5565b925050600181019050611506565b5085935050505092915050565b6000602082019050818103600083015261155a81846114e2565b905092915050565b7f4e487b7100000000000000000000000000000000000000000000000000000000600052602260045260246000fd5b600060028204905060018216806115a957607f821691505b6020821081036115bc576115bb611562565b5b50919050565b7f4e487b7100000000000000000000000000000000000000000000000000000000600052601160045260246000fd5b60006115fc82610d85565b91507fffffffffffffffffffffffffffffffffffffffffffffffffffffffffffffffff820361162e5761162d6115c2565b5b600182019050919050565b60008190508160005260206000209050919050565b60006020601f8301049050919050565b600082821b905092915050565b60006008830261169b7fffffffffffffffffffffffffffffffffffffffffffffffffffffffffffffffff8261165e565b6116a5868361165e565b95508019841693508086168417925050509392505050565b6000819050919050565b60006116e26116dd6116d884610d85565b6116bd565b610d85565b9050919050565b6000819050919050565b6116fc836116c7565b611710611708826116e9565b84845461166b565b825550505050565b600090565b611725611718565b6117308184846116f3565b505050565b5b818110156117545761174960008261171d565b600181019050611736565b5050565b601f8211156117995761176a81611639565b6117738461164e565b81016020851015611782578190505b61179661178e8561164e565b830182611735565b50505b505050565b600082821c905092915050565b60006117bc6000198460080261179e565b1980831691505092915050565b60006117d583836117ab565b9150826002028217905092915050565b6117ee82610df7565b67ffffffffffffffff81111561180757611806610f73565b5b6118118254611591565b61181c828285611758565b600060209050601f83116001811461184f576000841561183d578287015190505b61184785826117c9565b8655506118af565b601f19841661185d86611639565b60005b8281101561188557848901518255600182019150602085019450602081019050611860565b868310156118a2578489015161189e601f8916826117ab565b8355505b6001600288020188555050505b505050505050565b600060e0820190506118cc600083018a610de8565b81810360208301526118de8189610e4e565b905081810360408301526118f28188610e4e565b905081810360608301526119068187610e4e565b9050818103608083015261191a8186610e4e565b905081810360a083015261192e8185610e4e565b905061193d60c0830184610eb9565b98975050505050505050565b7f4576656e7420646f6573206e6f742065786973742e0000000000000000000000600082015250565b600061197f601583610e02565b915061198a82611949565b602082019050919050565b600060208201905081810360008301526119ae81611972565b9050919050565b60006119c082610d85565b91506119cb83610d85565b92508282039050818111156119e3576119e26115c2565b5b92915050565b7f4e487b7100000000000000000000000000000000000000000000000000000000600052603260045260246000fdfea26469706673582212201c00392be088ed28799c5f164b5977b8441196138ad0ec793fc115022c70dbef64736f6c63430008110033",
  "linkReferences": {},
  "deployedLinkReferences": {}
}